{
  "contractName": "Escrow",
  "abi": [
    {
      "inputs": [],
      "stateMutability": "nonpayable",
      "type": "constructor"
    },
    {
      "inputs": [],
      "name": "balance",
      "outputs": [
        {
          "internalType": "uint256",
          "name": "",
          "type": "uint256"
        }
      ],
      "stateMutability": "view",
      "type": "function"
    },
    {
      "inputs": [],
      "name": "owner",
      "outputs": [
        {
          "internalType": "address",
          "name": "",
          "type": "address"
        }
      ],
      "stateMutability": "view",
      "type": "function"
    }
  ],
  "bytecode": "0x608060405234801561001057600080fd5b50336000806101000a81548173ffffffffffffffffffffffffffffffffffffffff021916908373ffffffffffffffffffffffffffffffffffffffff16021790555047600181905550610167806100676000396000f3fe608060405234801561001057600080fd5b50600436106100365760003560e01c80638da5cb5b1461003b578063b69ef8a814610059575b600080fd5b610043610077565b60405161005091906100e2565b60405180910390f35b61006161009b565b60405161006e9190610116565b60405180910390f35b60008054906101000a900473ffffffffffffffffffffffffffffffffffffffff1681565b60015481565b600073ffffffffffffffffffffffffffffffffffffffff82169050919050565b60006100cc826100a1565b9050919050565b6100dc816100c1565b82525050565b60006020820190506100f760008301846100d3565b92915050565b6000819050919050565b610110816100fd565b82525050565b600060208201905061012b6000830184610107565b9291505056fea2646970667358221220baf1dceaa27e54663d27f456ff0e5cdda3e8f77b1431d7ee08c5c7eb1e82e32164736f6c634300080d0033",
  "immutableReferences": {},
  "source": "// SPDX-License-Identifier: MIT\npragma solidity >=0.4.22 <0.9.0;\n\ncontract Escrow {\n  address public owner;\n  uint public balance;\n  constructor() {\n    owner = msg.sender;\n    balance = address(this).balance;\n  }\n}\n",
  "sourcePath": "D:\\0.  Codebase\\Web 3\\MetaCoin\\contracts\\Escrow.sol",
  "compiler": {
    "name": "solc",
    "version": "0.8.13+commit.abaa5c0e.Emscripten.clang"
  },
  "schemaVersion": "3.4.16",
  "updatedAt": "2024-08-14T07:37:20.189Z",
  "devdoc": {
    "kind": "dev",
    "methods": {},
    "version": 1
  },
  "userdoc": {
    "kind": "user",
    "methods": {},
    "version": 1
  }
}